:040000000DEF00F010
:04000800A1EF21F053
:06001800FF00EEEF29F0ED
:1020000000A25800A453006056001A3D0028490061
:102010005A4B008446008858007059006C5900865D
:1020200055000A59000259007A5800FA580016580B
:1020300000A84D00D84B000658004D6F746F7220F9
:1020400053706565643A20252E32662052504D0D3E
:0B2050000A00696E66006E616E000001
:10205C00000E0001E26FBAC0E3F0BBC0E4F0BCC0FC
:10206C00E5F0BDC0E6F0E6BF40EF10F03EEF10F03B
:10207C0054EF10F0010EE26FE3C01CF0E4C01DF051
:10208C00E5C01EF0E6C01FF0B6EC29F01CC0E3F072
:10209C001DC0E4F01EC0E5F01FC0E6F0000E00010C
:1020AC00E86F000EE76FF9C0D2F0FAC0D3F0E2513E
:1020BC00D8B463EF10F065EF10F079EF10F0E25147
:1020CC00D8A46BEF10F06DEF10F073EF10F0000E62
:1020DC00C86F2B0EC76F77EF10F0000EC86F2D0E68
:1020EC00C76FC7C0E2F0E3C01CF0E4C01DF0E5C050
:1020FC001EF0E6C01FF0A9EC20F01C041D10D8A4A3
:10210C008AEF10F08CEF10F0BDEF10F00001E251EF
:10211C00D8B493EF10F095EF10F09EEF10F0E2C0F2
:10212C002AF1D207D8A0D307000EE86F010EE76F93
:10213C002A0EE7251C6E010EE8211D6E520E1E6E36
:10214C00E1EC28F00001FD0ED227FF0ED323B8C01E
:10215C0060F0B9C061F02A0E626F010E636FD2C0DD
:10216C0064F0D3C065F09BEC26F02AEF15F0E3C0C9
:10217C001CF0E4C01DF0E5C01EF0E6C01FF0A9EC99
:10218C0020F01C501D10D8A4CEEF10F0D0EF10F0A2
:10219C00EEEF10F00001E251D8B4D7EF10F0D9EF08
:1021AC0010F0E2EF10F0E2C02AF1D207D8A0D3076A
:1021BC00000EE86F010EE76F2A0EE7251C6E010E6C
:1021CC00E8211D6E560E1E6EE1EC28F0A8EF10F003
:1021DC00000E0001E96F000EEA6F800EEB6F3F0EF0
:1021EC00EC6F000ED16F000ED06FE3C01CF0E4C09A
:1021FC001DF0E5C01EF0E6C01FF0000E206E000EB4
:10220C00216E000E226E000E236E99EC23F0D8B0D6
:10221C0012EF11F014EF11F0F5EF11F021EF11F0B6
:10222C00D4C0E9F0D5C0EAF0D6C0EBF0D7C0ECF0E2
:10223C000001D04BD12BE9C087F0EAC088F0EBC08D
:10224C0089F0ECC08AF0000E00018B6F000E8C6FD1
:10225C00200E8D6F410E8E6F8CEC17F087C0D4F072
:10226C0088C0D5F089C0D6F08AC0D7F00001D4510F
:10227C00E35D1C6ED551E4591D6ED651E5591E6EA9
:10228C00D751E6591F6ECFEC27F01FBE59EF11F056
:10229C001F501E101D1009E1020E1C5CD8A059EF36
:1022AC0011F05BEF11F016EF11F0D4C0A0F0D5C017
:1022BC00A1F0D6C0A2F0D7C0A3F0E3C0A4F0E4C054
:1022CC00A5F0E5C0A6F0E6C0A7F0A3EC1FF0000156
:1022DC00D8A073EF11F075EF11F016EF11F0E95172
:1022EC00E35D1C6EEA51E4591D6EEB51E5591E6E0F
:1022FC00EC51E6591F6ECFEC27F01FBE93EF11F097
:10230C001F501E101D1007E1020E1C5CD8B091EF7F
:10231C0011F093EF11F0DBEF11F0E9C0E3F0EAC03C
:10232C00E4F0EBC0E5F0ECC0E6F0F5EF11F0E9C03D
:10233C006EF0EAC06FF0EBC070F0ECC071F0000E04
:10234C00726F000E736F200E746F410E756FB4ECCC
:10235C0019F06EC0E9F06FC0EAF070C0EBF071C01C
:10236C00ECF00001D007D8A0D107E951E35D1C6E59
:10237C00EA51E4591D6EEB51E5591E6EEC51E659CC
:10238C001F6ECFEC27F01FBED9EF11F01F501E109F
:10239C001D1007E1020E1C5CD8B0D7EF11F0D9EF7D
:1023AC0011F0DBEF11F093EF11F0E3C0A0F0E4C0FB
:1023BC00A1F0E5C0A2F0E6C0A3F0E9C0A4F0EAC029
:1023CC00A5F0EBC0A6F0ECC0A7F0A3EC1FF0000149
:1023DC00D8A0F3EF11F0F5EF11F09DEF11F0BEC0A6
:1023EC00CAF0CAC0CBF00001FCBFFFEF11F001EF47
:1023FC0012F007EF12F0FBC0C3F0FCC0C4F00BEFFF
:10240C0012F0000EC46F060EC36FC3C0CEF0C4C072
:10241C00CFF0CE4BCF2B660ECB19D8A418EF12F001
:10242C001AEF12F03AEF12F0D1BF21EF12F01FEFBA
:10243C0012F02DEF12F0000EE96F000EEA6F800E15
:10244C00EB6F3F0EEC6F000ED16F000ED06F670E6E
:10245C00CA19D8B434EF12F036EF12F03AEF12F08A
:10246C00D051CE27D151CF23000ED96F000ED86F8B
:10247C00E3C0DAF0E4C0DBF0E5C0DCF0E6C0DDF090
:10248C00E9C0D4F0EAC0D5F0EBC0D6F0ECC0D7F080
:10249C00CCEF12F0DAC06EF0DBC06FF0DCC070F085
:1024AC00DDC071F0E9C072F0EAC073F0EBC074F0FB
:1024BC00ECC075F0B4EC19F06EC087F06FC088F00A
:1024CC0070C089F071C08AF0A6EC1CF087C0DEF0F9
:1024DC0088C0DFF089C0E0F08AC0E1F0DEC01CF0FB
:1024EC00DFC01DF0E0C01EF0E1C01FF020EC1FF0BB
:1024FC001CC0CCF01DC0CDF0DAC0B0F0DBC0B1F028
:10250C00DCC0B2F0DDC0B3F0DEC08BF0DFC08CF00D
:10251C00E0C08DF0E1C08EF0E9C087F0EAC088F031
:10252C00EBC089F0ECC08AF08CEC17F087C0B4F0EB
:10253C0088C0B5F089C0B6F08AC0B7F0BDEC28F001
:10254C00B0C0DAF0B1C0DBF0B2C0DCF0B3C0DDF08B
:10255C00E9C06EF0EAC06FF0EBC070F0ECC071F047
:10256C00000E0001726F000E736F200E746F410E1F
:10257C00756FB4EC19F06EC0E9F06FC0EAF070C082
:10258C00EBF071C0ECF00001D84BD92BCE51D85DDB
:10259C00D951800ABF6FCF51800ABF59D8A0D9EF4B
:1025AC0012F0DBEF12F050EF12F0E9C087F0EAC046
:1025BC0088F0EBC089F0ECC08AF0000E8B6F000E37
:1025CC008C6FA00E8D6F400E8E6F8CEC17F087C049
:1025DC00DEF088C0DFF089C0E0F08AC0E1F0DAC03C
:1025EC00A0F0DBC0A1F0DCC0A2F0DDC0A3F0DEC027
:1025FC00A4F0DFC0A5F0E0C0A6F0E1C0A7F0A3EC0A
:10260C001FF00001D8B00DEF13F00FEF13F019EF1E
:10261C0013F0000EDE6F000EDF6F000EE06F000E89
:10262C00E16F42EF13F0DAC01CF0DBC01DF0DCC030
:10263C001EF0DDC01FF0DEC020F0DFC021F0E0C0D6
:10264C0022F0E1C023F099EC23F0D8A030EF13F086
:10265C0032EF13F042EF13F00001CCB138EF13F06E
:10266C003AEF13F042EF13F0000EDE6F000EDF6F47
:10267C00000EE06F000EE16FE3C0A0F0E4C0A1F02B
:10268C00E5C0A2F0E6C0A3F0DEC0A4F0DFC0A5F068
:10269C00E0C0A6F0E1C0A7F02BEC15F0A0C0DAF07A
:1026AC00A1C0DBF0A2C0DCF0A3C0DDF0DAC0A0F06A
:1026BC00DBC0A1F0DCC0A2F0DDC0A3F0000E000175
:1026CC008B6F000E8C6F200E8D6F410E8E6FD4C0F1
:1026DC0087F0D5C088F0D6C089F0D7C08AF08CECD2
:1026EC0017F087C0A4F088C0A5F089C0A6F08AC0F6
:1026FC00A7F0A3EC1FF00001D8A087EF13F089EF2F
:10270C0013F0B1EF13F0D04BD12BD4C087F0D5C060
:10271C0088F0D6C089F0D7C08AF0000E8B6F000EFF
:10272C008C6F200E8D6F410E8E6F8CEC17F087C066
:10273C00D4F088C0D5F089C0D6F08AC0D7F0660E28
:10274C000001CB19D8A4ADEF13F0AFEF13F0B1EF3C
:10275C0013F0CE4BCF2BD4C0E9F0D5C0EAF0D6C0E5
:10276C00EBF0D7C0ECF0D0C0C1F0D1C0C2F0000E7D
:10277C00C96F000EC66F000EC56F000ED96F000E2C
:10278C00D86FAFEF14F0DAC06EF0DBC06FF0DCC0C6
:10279C0070F0DDC071F0E9C072F0EAC073F0EBC00C
:1027AC0074F0ECC075F0B4EC19F06EC087F06FC02B
:1027BC0088F070C089F071C08AF0A6EC1CF087C05C
:1027CC00DEF088C0DFF089C0E0F08AC0E1F0DEC046
:1027DC001CF0DFC01DF0E0C01EF0E1C01FF020ECCB
:1027EC001FF01DBE05EF14F01D5007E10A0E1C5C16
:1027FC00D8B003EF14F005EF14F015EF14F0DEC0B1
:10280C001CF0DFC01DF0E0C01EF0E1C01FF020EC9A
:10281C001FF01CC0CCF01DC0CDF01AEF14F0000E50
:10282C000001CD6F090ECC6F0001C951D8A421EF66
:10283C0014F023EF14F04BEF14F0C2BF2AEF14F096
:10284C0028EF14F04BEF14F02A0EE725D96E010E89
:10285C00E821DA6E2E0EDF6EE74BE82BD207D8A0FC
:10286C00D307010EC96F4BEF14F02A0EE725D96E72
:10287C00010EE821DA6E300EDF6EE74BE82BD20743
:10288C00D8A0D307C507D8A0C607C551C611D8A470
:10289C0052EF14F054EF14F03BEF14F02A0EE7252E
:1028AC00D96E010EE821DA6ECC51300FDF6EE74B9A
:1028BC00E82BD207D8A0D307DAC0B0F0DBC0B1F058
:1028CC00DCC0B2F0DDC0B3F0DEC08BF0DFC08CF04A
:1028DC00E0C08DF0E1C08EF0E9C087F0EAC088F06E
:1028EC00EBC089F0ECC08AF08CEC17F087C0B4F028
:1028FC0088C0B5F089C0B6F08AC0B7F0BDEC28F03E
:10290C00B0C0DAF0B1C0DBF0B2C0DCF0B3C0DDF0C7
:10291C00E9C06EF0EAC06FF0EBC070F0ECC071F083
:10292C00000E0001726F000E736F200E746F410E5B
:10293C00756FB4EC19F06EC0E9F06FC0EAF070C0BE
:10294C00EBF071C0ECF00001C107D8A0C207D84B66
:10295C00D92BCE51D85DD951800ABF6FCF51800A87
:10296C00BF59D8B0BCEF14F0BEEF14F0CCEF14F09C
:10297C00E8BFCAEF14F0E85109E14B0EE75DD8A0AF
:10298C00CAEF14F0CCEF14F0C9EF13F0000ED96FAE
:10299C004F0ED86F2A0ED825D96E010ED921DA6EBA
:1029AC00DF6A2A0EBF6F010EC06FE751BF5FE8519F
:1029BC00C05BD851BF251C6ED951C0211D6E2A0E8B
:1029CC001E6E010E1F6EE7C020F0E8C021F076EC01
:1029DC0027F00001E751D85DE76FE851D959E86F4E
:1029EC00E251D8A4FCEF14F0FFEF14F0010E00EF4D
:1029FC0015F0000ED86FD96BE251D8B408EF15F072
:102A0C000AEF15F016EF15F0E707D8A0E8072A0E25
:102A1C00E725D96E010EE821DA6E60008BF3DFFF3B
:102A2C00D851D25FD951D35BB8C060F0B9C061F056
:102A3C002A0EE725626F010EE821636FD2C064F0A5
:102A4C00D3C065F09BEC26F012000001A351800B63
:102A5C00AC6FA351A325AE6FA2AF37EF15F039EFD2
:102A6C0015F03AEF15F0AE81AE51D8B440EF15F039
:102A7C0042EF15F057EF15F0AE29D8A448EF15F03A
:102A8C004AEF15F052EF15F0000EA06F000EA16F7B
:102A9C00000EA26F000EA36FA28F000EA36F5FEF4C
:102AAC0015F0000EA06F000EA16F000EA26F000EAD
:102ABC00A36FA751800BAD6FAC51AD19D8B469EFB2
:102ACC0015F06BEF15F06CEF15F0AC8DA751A72539
:102ADC00AD6FA6AF74EF15F076EF15F077EF15F03C
:102AEC00AD81AD51D8B47DEF15F07FEF15F094EFBB
:102AFC0015F0AD29D8A485EF15F087EF15F08FEF01
:102B0C0015F0000EA46F000EA56F000EA66F000E40
:102B1C00A76FA68F000EA76F9CEF15F0000EA46F89
:102B2C00000EA56F000EA66F000EA76FAE51AD5D27
:102B3C00D8B0A3EF15F0A5EF15F0CCEF15F0ACADB8
:102B4C00AAEF15F0ACEF15F0AEEF15F0800EAC1B44
:102B5C00AEC0AFF0ADC0AEF0AFC0ADF0A0C0AFF046
:102B6C00A4C0A0F0AFC0A4F0A1C0AFF0A5C0A1F06C
:102B7C00AFC0A5F0A2C0AFF0A6C0A2F0AFC0A6F047
:102B8C00A3C0AFF0A7C0A3F0AFC0A7F0000EAF6F0B
:102B9C00AE51ADC0A8F0A96BA85F000EA95BA9BF90
:102BAC00E1EF15F0A95109E11A0EA85DD8A0E1EFEB
:102BBC0015F0E3EF15F01AEF16F0A051A111A211C8
:102BCC00A311D8A4ECEF15F0EFEF15F0010EF0EF18
:102BDC0015F0000EAF6F000EA06F000EA16F000E6F
:102BEC00A26F000EA36FADC0AEF023EF16F0AFA135
:102BFC0002EF16F004EF16F00AEF16F0D890AF3192
:102C0C000109AF6F0CEF16F0D890AF33A0A111EF04
:102C1C0016F013EF16F014EF16F0AF8FA335A333A5
:102C2C00A233A133A033AE2BAD51AE5DD8A021EFB2
:102C3C0016F023EF16F0FDEF15F0ACBD28EF16F0F3
:102C4C002AEF16F06AEF16F0AE51D8A430EF16F05A
:102C5C0032EF16F03CEF16F0000EA06F000EA16FD5
:102C6C00000EA26F000EA36F8BEF17F0A451A027DC
:102C7C00A551A123A651A223A751A323A3A149EF98
:102C8C0016F04BEF16F0F7EF16F0AFA150EF16F071
:102C9C0052EF16F058EF16F0D890AF310109AF6F24
:102CAC005AEF16F0D890AF33A0A15FEF16F061EF9A
:102CBC0016F062EF16F0AF8FA335A333A233A13316
:102CCC00A033AE2BF7EF16F0A451A05DA551A1597E
:102CDC00A651A259A351800AA86FA751800AA859DE
:102CEC00D8B07BEF16F07DEF16F0A8EF16F0A051E0
:102CFC00A45DA86FA151A559A96FA251A659AA6F9D
:102D0C00A351A759AB6FFF0EA825A06FFF0EA921E9
:102D1C00A16FFF0EAA21A26FFF0EAB21A36F800E35
:102D2C00AC1BAF6DAF51D8A49EEF16F0A0EF16F010
:102D3C00B0EF16F0010EA027000EA123A223A323AF
:102D4C00B0EF16F0A451A05FA551A15BA651A25BF8
:102D5C00A751A35BA051A111A211A311D8A4B9EF43
:102D6C0016F0BBEF16F0F0EF16F0AF51D8A4C1EF90
:102D7C0016F0C3EF16F0F0EF16F0000EA06F000E79
:102D8C00A16F000EA26F000EA36F8BEF17F0D890FF
:102D9C00A037A137A237A337AFAFD7EF16F0D9EFD3
:102DAC0016F0DAEF16F0A081AFA1DFEF16F0E1EF2D
:102DBC0016F0E5EF16F0D880AF37E7EF16F0D890A5
:102DCC00AF37AE51D8B4EDEF16F0EFEF16F0F0EFE1
:102DDC0016F0AE07A2AFF5EF16F0F7EF16F0CDEF49
:102DEC0016F0000EAD6FAFAFFEEF16F000EF17F060
:102DFC0018EF17F0AFC0A8F07F0EA817D8B409EFE2
:102E0C0017F00BEF17F00FEF17F0010EAD6F18EF77
:102E1C0017F0A0A114EF17F016EF17F018EF17F03A
:102E2C000BEF17F0AD51D8B41EEF17F020EF17F0E1
:102E3C004BEF17F0010EA027000EA123A223A32312
:102E4C00A3A12BEF17F02DEF17F04BEF17F0A0C04D
:102E5C00A8F0A1C0A9F0A2C0AAF0A3C0ABF0AB35FA
:102E6C00AB33AA33A933A833A8C0A0F0A9C0A1F0F2
:102E7C00AAC0A2F0ABC0A3F0AE29D8B448EF17F0AB
:102E8C004AEF17F04BEF17F0AE2BAE29D8B451EF39
:102E9C0017F053EF17F05BEF17F0AE51D8A459EFC2
:102EAC0017F05BEF17F06DEF17F0000EA06F000E30
:102EBC00A16F000EA26F000EA36FAE51D8A469EFE4
:102ECC0017F06BEF17F06DEF17F0000EAC6FAEA1B3
:102EDC0072EF17F074EF17F077EF17F0A28F78EF0F
:102EEC0017F0A29FD890AE31A36FACAF80EF17F064
:102EFC0082EF17F083EF17F0A38FA0C0A0F0A1C052
:102F0C00A1F0A2C0A2F0A3C0A3F0120000018A514C
:102F1C00800B936F8A518A25956F89AF98EF17F0C4
:102F2C009AEF17F09BEF17F095819551D8B4A1EF5C
:102F3C0017F0A3EF17F0B6EF17F09529D8A4A9EF67
:102F4C0017F0ABEF17F0B3EF17F0000E876F000E12
:102F5C00886F000E896F000E8A6F898FBEEF17F095
:102F6C00000E876F000E886F000E896F000E8A6F3F
:102F7C008E51800B931B8E518E25946F8DAFC9EFA4
:102F8C0017F0CBEF17F0CCEF17F094819451D8B425
:102F9C00D2EF17F0D4EF17F0E7EF17F09429D8A47D
:102FAC00DAEF17F0DCEF17F0E4EF17F0000E8B6F91
:102FBC00000E8C6F000E8D6F000E8E6F8D8FEFEFED
:102FCC0017F0000E8B6F000E8C6F000E8D6F000EC5
:102FDC008E6F9451D8B4F5EF17F0F7EF17F0FFEFB1
:102FEC0017F09551D8A4FDEF17F0FFEF17F009EF8C
:102FFC0018F0000E876F000E886F000E896F000EA0
:10300C008A6FB3EF19F08D5187036F00CCFF9EF0E0
:10301C006F00D0FF9FF09E51966F976B986B996BDA
:10302C009F519A6F9B6B9C6B9D6B8C5188036F00AF
:10303C00CCFF9EF06F00D0FF9FF09E519627000EA4
:10304C009723982399239F519A27000E9B239C2307
:10305C009D238B5189036F00CCFF9EF06F00D0FF36
:10306C009FF09E519627000E9723982399239F51EA
:10307C009A27000E9B239C239D2398C099F097C000
:10308C0098F096C097F0966B8B5188036F00CCFF2D
:10309C009EF06F00D0FF9FF09E5196279F51972373
:1030AC00000E9823000E99238C5187036F00CCFFE0
:1030BC009EF06F00D0FF9FF09E5196279F51972353
:1030CC00000E9823000E992398C099F097C098F0A1
:1030DC0096C097F0966B8B5187036F00CCFF9EF0D8
:1030EC006F00D0FF9FF09E5196279F519723000EA3
:1030FC009823000E99238D5188036F00CCFF9EF00E
:10310C006F00D0FF9FF09E519A279F519B23000E7A
:10311C009C23000E9D238C5189036F00CCFF9EF0E5
:10312C006F00D0FF9FF09E519A279F519B23000E5A
:10313C009C23000E9D238D5189036F00CCFF9EF0C4
:10314C006F00D0FF9FF09E518F6F9F51906F916BCE
:10315C00926B91C092F090C091F08FC090F08F6BF9
:10316C008F519A2790519B2391519C2392519D23CF
:10317C0096C08FF097C090F098C091F099C092F0E3
:10318C00190ECEEF18F0D8909233913390338F33D1
:10319C00E82EC9EF18F08F519A2790519B2391512B
:1031AC009C2392519D2398C099F097C098F096C09B
:1031BC0097F0966B945195C08FF0906B8F27000E03
:1031CC009023820E8F259E6FFF0E90219F6F04EF30
:1031DC0019F0D8909A379B379C379D3799AFF9EFF8
:1031EC0018F0FBEF18F0FCEF18F09A81D890963796
:1031FC009737983799379E07D8A09F079CAF09EF50
:10320C0019F00BEF19F0EFEF18F0000E946F99AF67
:10321C0012EF19F014EF19F038EF19F0FF0E9615A4
:10322C008F6FFF0E9715906FFF0E9815916F7F0E95
:10323C009915926F8F51901191119211D8B429EF69
:10324C0019F02BEF19F02FEF19F0010E946F38EFE6
:10325C0019F09AA134EF19F036EF19F038EF19F094
:10326C002BEF19F09451D8B43EEF19F040EF19F050
:10327C0064EF19F0010E9A27000E9B239C239D23CB
:10328C009DA14BEF19F04DEF19F064EF19F09AC0B6
:10329C008FF09BC090F09CC091F09DC092F0923545
:1032AC009233913390338F338FC09AF090C09BF050
:1032BC0091C09CF092C09DF09E4B9F2B9FBF6FEFD7
:1032CC0019F09F5108E19E29D8A06FEF19F071EF0A
:1032DC0019F07BEF19F0000E9A6F000E9B6F800EA9
:1032EC009C6F7F0E9D6FA9EF19F09FBF88EF19F0AF
:1032FC009F5106E19E05D8B086EF19F088EF19F0C2
:10330C0094EF19F0000E9A6F000E9B6F000E9C6FDD
:10331C00000E9D6F000E936FA9EF19F09EC095F0F3
:10332C00FF0E9A17FF0E9B177F0E9C17000E9D1712
:10333C0095A1A3EF19F0A5EF19F0A6EF19F09C8F4A
:10334C00D89095319D6F93519D139AC087F09BC077
:10335C0088F09CC089F09DC08AF012000001715168
:10336C00800B7E6F71517125856F70AFC0EF19F0B6
:10337C00C2EF19F0C3EF19F085818551D8B4C9EFAC
:10338C0019F0CBEF19F0E0EF19F08529D8A4D1EFA3
:10339C0019F0D3EF19F0DBEF19F0000E6E6F000E81
:1033AC006F6F000E706F000E716F708F000E716F6B
:1033BC00E8EF19F0000E6E6F000E6F6F000E706F5D
:1033CC00000E716F7551800B7E1B75517525866FC4
:1033DC0074AFF3EF19F0F5EF19F0F6EF19F08681F1
:1033EC008651D8B4FCEF19F0FEEF19F013EF1AF078
:1033FC008629D8A404EF1AF006EF1AF00EEF1AF093
:10340C00000E726F000E736F000E746F000E756FEE
:10341C00748F000E756F1BEF1AF0000E726F000E9A
:10342C00736F000E746F000E756F725173117411FF
:10343C007511D8A424EF1AF026EF1AF03EEF1AF00B
:10344C00000E6E6F000E6F6F000E706F000E716FBE
:10345C00800E70137F0E71137E5171136EC06EF05F
:10346C006FC06FF070C070F071C071F081EF1BF025
:10347C008551D8A444EF1AF046EF1AF050EF1AF029
:10348C00000E6E6F000E6F6F000E706F000E716F7E
:10349C0081EF1BF0865185C076F0776B765F000E5E
:1034AC00775B7F0E76257F6F000E7721806F6EC065
:1034BC007AF06FC07BF070C07CF071C07DF0000EB4
:1034CC006E6F000E6F6F000E706F000E716F000E3E
:1034DC00816F000E826F000E836F000E846F000EE2
:1034EC00866FB1EF1AF08651D8B47FEF1AF081EFE6
:1034FC001AF098EF1AF0D8907A377B377C377D37F3
:10350C00D8906E376F377037713784AF90EF1AF0F1
:10351C0092EF1AF093EF1AF06E81D89081378237C0
:10352C008337843772517A5D73517B5974517C594E
:10353C0075517D59D8A0A5EF1AF0A7EF1AF0B0EF8E
:10354C001AF0848D72517A5F73517B5B74517C5B82
:10355C0075517D5B862B190E8665B7EF1AF0B9EFA6
:10356C001AF079EF1AF07A517B117C117D11D8B4D5
:10357C00C2EF1AF0C4EF1AF0DCEF1AF08181DCEF25
:10358C001AF0D8906E376F377037713784AFD1EF30
:10359C001AF0D3EF1AF0D4EF1AF06E81D89081376D
:1035AC008237833784377F07D8A0800770AFE1EF6D
:1035BC001AF0E3EF1AF0C7EF1AF0000E866F84AF23
:1035CC00EAEF1AF0ECEF1AF010EF1BF0FF0E81157A
:1035DC00766FFF0E8215776FFF0E8315786F7F0E57
:1035EC008415796F7651771178117911D8B401EF70
:1035FC001BF003EF1BF007EF1BF0010E866F10EFB3
:10360C001BF06EA10CEF1BF00EEF1BF010EF1BF07C
:10361C0003EF1BF08651D8B416EF1BF018EF1BF01C
:10362C003CEF1BF0010E6E27000E6F2370237123ED
:10363C0071A123EF1BF025EF1BF03CEF1BF06EC0CC
:10364C0076F06FC077F070C078F071C079F0793592
:10365C00793378337733763376C06EF077C06FF08A
:10366C0078C070F079C071F07F4B802B80BF47EF32
:10367C001BF0805108E17F29D8A047EF1BF049EFE0
:10368C001BF054EF1BF0000E806F7F69000E6E6F05
:10369C00000E6F6F000E706F000E716F80BF61EFC8
:1036AC001BF0805106E17F05D8B05FEF1BF061EF96
:1036BC001BF06FEF1BF0000E806F000E7F6F000E83
:1036CC006E6F000E6F6F000E706F000E716F000E3C
:1036DC007E6F7FC085F085A176EF1BF078EF1BF035
:1036EC007BEF1BF0708F7CEF1BF0709FD8908531B7
:1036FC00716F32EF1AF012000001EF51D96EDA6AD5
:10370C006F007FFFF6FF200EF76E000EF86E0800BC
:10371C00F550250AD8A495EF1BF097EF1BF08FEF0F
:10372C001CF0EF51D96EDA6ADF2A000EFA6F000E28
:10373C00F96FF9C0FDF0FB69FC69EF51D96EDA6ADB
:10374C006F007FFFF6FF200EF76E000EF86E08007C
:10375C00F5502E0AD8A4B5EF1BF0B7EF1BF0C5EF50
:10376C001BF0EF51D96EDA6ADF2AEFC022F0F0C0FD
:10377C0023F080EC22F022C0FBF023C0FCF000010F
:10378C00EF51D96EDA6ADF5001017F6F6000FFF5EF
:10379C00F6FF200EF76E000EF86E08006F00D4FFD7
:1037AC007EF1E4EF1BF07F2BF3EF1BF06C0E7E6FC2
:1037BC00F3EF1BF0000E7E6FF3EF1BF07E514C0A03
:1037CC00D8B4D9EF1BF02A0AD8B4DCEF1BF00A0AE4
:1037DC00D8B4D9EF1BF0E0EF1BF06000FFF5F6FF5B
:1037EC00200EF76E000EF86E0800F550660AD8A48D
:1037FC0002EF1CF004EF1CF088EF1CF04AEF1CF0F9
:10380C000001F051D96EDA6A6F007CFFF1F0040E02
:10381C00DE266F007CFFF2F0000EDD226000C7F3A5
:10382C00D9FF6000CBF3DAFF6F0078FF7AF16F00FD
:10383C0078FF7BF16F0078FF7CF16F0078FF7DF1F2
:10384C0055EF1CF00001F051D96EDA6A6F007CFF65
:10385C00F1F0040EDE266F007CFFF2F0000EDD228C
:10386C006000C7F3D9FF6000CBF3DAFF6F0078FF7D
:10387C007AF16F0078FF7BF16F0078FF7CF16F00BD
:10388C0078FF7DF155EF1CF07E514C0AD8B428EF2F
:10389C001CF0200AD8B406EF1CF055EF1CF0000108
:1038AC00EF51D96EDA6A01017F29DF6E79EF1CF0D6
:1038BC00EDC0B8F0EEC0B9F07AC1BAF07BC1BBF084
:1038CC007CC1BCF07DC1BDF06000FFF5F6FF200EA1
:1038DC00F76E000EF86E08006F00D4FFBEF02EECF1
:1038EC0010F0A5EF1CF06000FFF5F6FF200EF76E50
:1038FC00000EF86E0800F550660AD8B45EEF1CF0A6
:10390C0088EF1CF00001EF51D96EDA6ADF2AA5EFBF
:10391C001CF0EF51D96EDA6A6F007FFFF6FF200EB4
:10392C00F76E000EF86E0800F5501E6E1F6AEDC0A3
:10393C0020F0EEC021F014EC22F088EF1CF0120005
:10394C00F5C097F0F6C098F0F7C099F0F8C09AF06F
:10395C0087C097F088C098F089C099F08AC09AF017
:10396C00810E00018B6FFF0E8C6F97C08DF098C08D
:10397C008EF099C08FF09AC090F0180ECBEF1CF01F
:10398C00D89090338F338E338D33E82EC6EF1CF0E6
:10399C008D518B25956F000E8C21966F96BFE0EFA5
:1039AC001CF0965109E1170E955DD8A0E0EF1CF0C4
:1039BC00E2EF1CF0ECEF1CF087C087F088C088F0B9
:1039CC0089C089F08AC08AF0B0EF1DF096BFF1EF84
:1039DC001CF0F3EF1CF064EF1DF095C08BF0FF0EA4
:1039EC008C6FFF0E8D6F7F0E8E6F000E8F6F8B673F
:1039FC0002EF1DF00AEF1DF08F358F338E338D33B0
:103A0C008C338B2FFDEF1CF08CC091F08DC092F09D
:103A1C008EC093F08FC094F00001915197158B6F6D
:103A2C00925198158C6F935199158D6F94519A15DD
:103A3C008E6F8B518C118D118E11D8A428EF1DF027
:103A4C002AEF1DF02CEF1DF0E2EF1CF097C08BF06D
:103A5C0098C08CF099C08DF09AC08EF0200E3CEF7F
:103A6C001DF0D8908E338D338C338B33E82E37EF9B
:103A7C001DF08B518C118D118E11D8B448EF1DF0A7
:103A8C004AEF1DF052EF1DF0915197279251982358
:103A9C009351992394519A23911D8B6F921D8C6F86
:103AAC00931D8D6F941D8E6F8B5197178C5198179A
:103ABC008D5199178E519A17A8EF1DF097C08BF066
:103ACC0098C08CF099C08DF09AC08EF0200E74EFD7
:103ADC001DF0D8908E338D338C338B33E82E6FEFF3
:103AEC001DF08B518C118D118E11D8A480EF1DF00F
:103AFC0082EF1DF08CEF1DF0000E976F000E986F8B
:103B0C00000E996F000E9A6FA8EF1DF0D8909735A4
:103B1C008B6F98358C6F99358D6F9A358E6F8B5165
:103B2C008C118D118E11D8B49EEF1DF0A0EF1DF0ED
:103B3C00A8EF1DF0000E976F000E986F800E996F16
:103B4C00BF0E9A6F97C087F098C088F099C089F023
:103B5C009AC08AF012000001686F00016851D8B455
:103B6C00BAEF1DF0BCEF1DF0DEEF1DF063BFC3EF2D
:103B7C001DF0C1EF1DF0DEEF1DF060C064F061C000
:103B8C0065F062C066F063C067F0641F651F661F56
:103B9C00671F642B000E65236623672364C06AF0DD
:103BAC0065C06BF066C06CF067C06DF0E6EF1DF0A1
:103BBC0060C06AF061C06BF062C06CF063C06DF005
:103BCC006051611162116311D8A4EFEF1DF0F1EF98
:103BDC001DF0FBEF1DF0000E606F000E616F000E0C
:103BEC00626F000E636F8CEF1EF0960E696F05EF1F
:103BFC001EF0692BD8906D336C336B336A33000E27
:103C0C006A15646F000E6B15656F000E6C15666F90
:103C1C00FE0E6D15676F6451651166116711D8A49E
:103C2C001AEF1EF01CEF1EF0FFEF1DF02AEF1EF036
:103C3C00692B010E6A27000E6B236C236D23D89021
:103C4C006D336C336B336A33000E6A15646F000E80
:103C5C006B15656F000E6C15666FFF0E6D15676F3B
:103C6C006451651166116711D8A43FEF1EF041EF46
:103C7C001EF01EEF1EF049EF1EF06907D8906A3750
:103C8C006B376C376D376CBF4EEF1EF050EF1EF07C
:103C9C0058EF1EF0020E696156EF1EF058EF1EF041
:103CAC0043EF1EF069B15DEF1EF05FEF1EF060EFA9
:103CBC001EF06C9FD890693369C064F0656B666BBD
:103CCC00676B64C067F0666B656B646B64516A13F9
:103CDC0065516B1366516C1367516D136851D8B4F1
:103CEC007AEF1EF07CEF1EF084EF1EF063BF83EFC3
:103CFC001EF081EF1EF084EF1EF06D8F6AC060F035
:103D0C006BC061F06CC062F06DC063F01200C2EC6D
:103D1C002BF00009D8B495EF1EF097EF1EF0D3EFFF
:103D2C001EF0A4EF1EF044EC2CF01FEF1FF0B8ECCB
:103D3C002CF01FEF1FF0000E1FEF1FF018C10CF03E
:103D4C0019C10DF020EE09F102D8B7EF1EF00500F5
:103D5C00FA6EDE50FD6EDE50FE6EDE50FF6EFA50D7
:103D6C0012000F6E106A1050000AD8B4C0EF1EF08B
:103D7C00A1EF1EF00F50010AD8B4A1EF1EF0030AF8
:103D8C00D8B499EF1EF0010AD8B49DEF1EF0070AC3
:103D9C00D8B4A1EF1EF0A1EF1EF0B7EC2BF0000988
:103DAC00D8B4DBEF1EF0DDEF1EF01EEF1FF00101AB
:103DBC002951030B0009D8B4E6EF1EF0E8EF1EF012
:103DCC00F4EF1EF0010E0F6E2951030B106E0F5005
:103DDC00105E29511018FC0B1018296F60008FF41D
:103DEC00D9FF600093F4DAFFDF50116E234B242BC4
:103DFC002507D8A0260725512611D8A408EF1FF0B7
:103E0C000AEF1FF012EF1FF0ADEC25F00F6E0F5004
:103E1C00136E146A16EF1FF0000E146E030E136E61
:103E2C0013C012F0115066EC2CF012501FEF1FF063
:103E3C00030E12001E341F34256E2550D8A429EF12
:103E4C001FF02BEF1FF035EF1FF0000E1C6E000E55
:103E5C001D6E000E1E6E000E1F6EA2EF1FF01CC01A
:103E6C0020F01DC021F01EC022F01FC023F0200E38
:103E7C0045EF1FF0D8902332223221322032E82E27
:103E8C0040EF1FF02050246E1E8EFF0E1C16FF0EEE
:103E9C001D16FF0E1E16000E1F16960E255E25BE55
:103EAC005CEF1FF05AEF1FF072EF1FF02550800AE5
:103EBC00970FD8B064EF1FF066EF1FF068EF1FF09C
:103ECC002BEF1FF0D8901F321E321D321C32253EB4
:103EDC0068EF1FF08AEF1FF01F0E256478EF1FF0BC
:103EEC007AEF1FF082EF1FF02BEF1FF0D8901C36EB
:103EFC001D361E361F3625062550D8A488EF1FF018
:103F0C008AEF1FF07CEF1FF02450D8B490EF1FF015
:103F1C0092EF1FF09AEF1FF01F1E1E1E1D1E1C6C31
:103F2C00000E1D221E221F221CC01CF01DC01DF0E5
:103F3C001EC01EF01FC01FF01200000E0001A015C5
:103F4C00A86F000EA115A96F800EA215AA6F7F0E87
:103F5C00A315AB6FA851A911AA11AB11D8A4B9EF35
:103F6C001FF0BBEF1FF0C3EF1FF0000EA06F000E91
:103F7C00A16F000EA26F000EA36F000EA415A86F08
:103F8C00000EA515A96F800EA615AA6F7F0EA7159A
:103F9C00AB6FA851A911AA11AB11D8A4D8EF1FF07F
:103FAC00DAEF1FF0E2EF1FF0000EA46F000EA56F0A
:103FBC00000EA66F000EA76FA3AFE7EF1FF0E9EF9F
:103FCC001FF0F2EF1FF0A06DA11FD8B0A12BA21F04
:103FDC00D8B0A22B800EA357A7AFF7EF1FF0F9EFC5
:103FEC001FF002EF20F0A46DA51FD8B0A52BA61FC3
:103FFC00D8B0A62B800EA757000EA01B000EA11B3D
:10400C00000EA21B800EA31B000EA41B000EA51BF2
:10401C00000EA61B800EA71BA451A05DA551A15993
:10402C00A651A259A751A359D8B01FEF20F021EFE8
:10403C0020F024EF20F0D89025EF20F0D88012004B
:10404C00000E00018B6F000E8C6F000E8D6F400EFA
:10405C008E6F000E726FFE0E736FFF0E746F460E36
:10406C00756F0BEC27F028C060F029C061F00001DF
:10407C00000E61BFFF0E626F636F010EB1EC1DF09D
:10408C0060C06EF061C06FF062C070F063C071F020
:10409C00B4EC19F06EC087F06FC088F070C089F076
:1040AC0071C08AF08CEC17F087C0C0F088C0C1F0EA
:1040BC0089C0C2F08AC0C3F0BCC0B4F0BDC0B5F0BA
:1040CC00BEC0B6F0BFC0B7F0BCC08BF0BDC08CF0AA
:1040DC00BEC08DF0BFC08EF0C0C087F0C1C088F0EC
:1040EC00C2C089F0C3C08AF08CEC17F087C0B0F066
:1040FC0088C0B1F089C0B2F08AC0B3F0BDEC28F032
:10410C00B0C0C4F0B1C0C5F0B2C0C6F0B3C0C7F007
:10411C00C4C0A0F0C5C0A1F0C6C0A2F0C7C0A3F037
:10412C00B8C0A4F0B9C0A5F0BAC0A6F0BBC0A7F047
:10413C002BEC15F0A0C0B8F0A1C0B9F0A2C0BAF039
:10414C00A3C0BBF012003DC026F03EC027F03FC01C
:10415C0028F040C029F01CC026F01DC027F01EC05E
:10416C0028F01FC029F026C020F027C021F028C05D
:10417C0022F029C023F0180EC9EF20F0D89023327A
:10418C00223221322032E82EC4EF20F02050246E4F
:10419C00256A24502510D8A4D6EF20F0D8EF20F0B3
:1041AC00F8EF20F0D8902634206E2734216E283476
:1041BC00226E2934236E2050211022102310D8A4F3
:1041CC00EAEF20F0ECEF20F0F2EF20F0000E1D6E85
:1041DC00020E1C6E27EF21F0000E1D6E030E1C6EDE
:1041EC0027EF21F024282510D8A4FFEF20F001EFB1
:1041FC0021F023EF21F026C020F027C021F028C0A9
:10420C0022F029C023F0090ED89020362136223610
:10421C002336E82E0AEF21F0205021102210231013
:10422C00D8B41BEF21F01EEF21F0010E1FEF21F08F
:10423C00000E1C6E1D6A27EF21F0000E1D6E040E81
:10424C001C6E120093EC2BF0E9EC2AF027EC26F014
:10425C00D28E000E1C6E000E1D6E9AEC29F01CC046
:10426C0020F01DC021F079EC2BF0000E2E6E270EE5
:10427C006DEC25F00001FF6F000E2E6E4C0E6DECF8
:10428C0025F00001FE6FFF5197EC28F0BC883A0E28
:10429C000101846F000E856F000E866F000E876F14
:1042AC00000E886F1FEC2BF0030E01018A6F8A0E33
:1042BC00896F550EE82EFED7892FFCD78A2FFAD797
:1042CC0000D0000E0001B86F8C0EB96F070EBA6FDC
:1042DC00460EBB6F000EBC6F000EBD6F200EBE6F86
:1042EC00420EBF6F26EC20F0B8C08BF1B9C08CF138
:1042FC00BAC08DF1BBC08EF13A0E0101846F8BC137
:10430C0085F18CC186F18DC187F18EC188F11FECCE
:10431C002BF0BC98030E01018A6F8A0E896F550E23
:10432C00E82EFED7892FFCD78A2FFAD700D03BEF87
:10433C0021F00DEF00F06F00E8FF16F06F00ECFFBE
:10434C0017F06F00D8FF18F06F00DCFF19F06F004A
:10435C00E0FF1AF06F00D4FF1BF0390196A3B9EF00
:10436C0021F0BBEF21F0D1EF21F0A6A3C0EF21F09B
:10437C00C2EF21F0D1EF21F002D8CFEF21F00500F0
:10438C00FA6E4150FD6E4250FE6E4350FF6EFA5075
:10439C00120001EF22F095ADD6EF21F0D8EF21F00D
:1043AC00E1EF21F0A5ADDDEF21F0DFEF21F0E1EF42
:1043BC0021F0C2EF21F096A1E6EF21F0E8EF21F019
:1043CC00F1EF21F0A6A1EDEF21F0EFEF21F0F1EFED
:1043DC0021F0C2EF21F095AFF6EF21F0F8EF21F0CC
:1043EC0001EF22F0A5AFFDEF21F0FFEF21F001EF7F
:1043FC0022F0C2EF21F060006FF0F5FF60006BF06F
:10440C00F8FF600067F0F7FF600063F0F6FF6000F4
:10441C005FF0FBFF60005BF0FAFF110020502110F1
:10442C00D8B41BEF22F01DEF22F026EF22F0205023
:10443C002110D8A424EF22F026EF22F02BEF22F04B
:10444C001E5057EC2CF07FEF22F020EE0AF020509B
:10445C00D9262150DA22DE50DE10D8B438EF22F003
:10446C003AEF22F055EF22F020EE0AF02050D92638
:10447C002150DA2210EE03F02050E1262150E222E6
:10448C00DE50E65CE650800A266EDE50800A265826
:10449C00D8B053EF22F055EF22F07FEF22F020EE50
:1044AC0003F02050D9262150DA226F0078FF22F039
:1044BC006F0074FF23F0600083F0D9FF600087F079
:1044CC00DAFF6F0078FF24F06F0074FF25F02250A4
:1044DC002424D96E23502520DA6E60007BF0DFFF98
:1044EC0020EE03F02050D9262150DA22DE2A000ECD
:1044FC00DD221200000E286E000E276E2250D96E9F
:10450C00DA6A6F007FFFF6FF200EF76E000EF86E72
:10451C000800F5502A0AD8A496EF22F098EF22F062
:10452C00CBEF22F02250D96EDA6ADF2A2350D96EF3
:10453C00DA6A6F007CFF24F0020EDE266F007CFF2F
:10454C0025F0000EDD22600093F0D9FF600097F09B
:10455C00DAFF6F0078FF27F06F0074FF28F0E1EFAF
:10456C0022F027C01CF028C01DF0000E1F6E0A0E92
:10457C001E6EAEEC2AF026501C24276E000E1D2059
:10458C00286E2250D96EDA6ADF2A2250D96EDA6A86
:10459C006F007FFFF6FF200EF76E000EF86E08001E
:1045AC00F550D00F266E090E2664DFEF22F0E1EFF6
:1045BC0022F0B7EF22F027C022F028C023F012001F
:1045CC001F6E010E206E010129B7EFEF22F0F1EF03
:1045DC0022F040EF23F01FC022F129952987FC0E11
:1045EC0029170F0E276F010E216FF40E206F2989EA
:1045FC006C0E006F580E016F000E026F000E126FE2
:10460C00000E136F6C0E036F580E046F000E056FC7
:10461C00000E146F000E156F6C0E066F580E076FA0
:10462C00000E086F000E166F000E176F6C0E096FE0
:10463C00580E0A6F000E0B6F000E186F000E196FDC
:10464C005E0E0C6F580E0D6F000E0E6F000E1A6F73
:10465C00000E1B6F260E1C6E590E1D6E000E1E6E6C
:10466C0028EC2CF079EC2CF009EC2AF0F9EC2BF07E
:10467C00000E206E20501200D3AE47EF23F042EF15
:10468C0024F0010129896BEF23F08DEC2CF0080E3E
:10469C0098EF23F08DEC2CF0070E98EF23F001012E
:1046AC00252961EC2CF0040E98EF23F0070E010184
:1046BC002719D8B464EF23F066EF23F068EF23F0EA
:1046CC0090EC2CF00F0E98EF23F012C127F013C1D1
:1046DC0028F002D87CEF23F00500FA6E0051FD6E35
:1046EC000151FE6E0251FF6EFA5012002A6E2B6AB7
:1046FC002B50000AD8B485EF23F05CEF23F02A503E
:10470C00010AD8B45CEF23F0030AD8B450EF23F0BD
:10471C00010AD8B44BEF23F0070AD8B455EF23F0B5
:10472C005CEF23F01200000E1C14246E000E1D14FE
:10473C00256E800E1E14266E7F0E1F14276E2450BD
:10474C00251026102710D8A4AEEF23F0B0EF23F0DD
:10475C00B8EF23F0000E1C6E000E1D6E000E1E6EC8
:10476C00000E1F6E000E2014246E000E2114256EF8
:10477C00800E2214266E7F0E2314276E24502510D3
:10478C0026102710D8A4CDEF23F0CFEF23F0D7EFCE
:10479C0023F0000E206E000E216E000E226E000E15
:1047AC00236E20501C180FE121501D180CE12250D3
:1047BC001E1809E123501F18D8B4E7EF23F0E9EFD6
:1047CC0023F0ECEF23F0D890EDEF23F0D88012001B
:1047DC00000EBE6E000EBD6E000EBA6E000EBB6EED
:1047EC00000EBC6E070EC66EC268F90EC36EAF0E1D
:1047FC00C46EC5683A0170690F0E606FF90E506F88
:10480C00070E806F4069000E716F000E816F000EF5
:10481C00516F000E416F000E616F000E5A6F000E4B
:10482C005B6F000E6A6F000E6B6F000E7A6F000EDE
:10483C007B6F000E826F000E426F060E526F180EC9
:10484C00626F000E726F4369536963697369070E77
:10485C00836F44695469646974690F0E846F090E1F
:10486C00E36F230E096F240E0A6F130E166F170ECB
:10487C00E56F0A0EE46F12000101298966EF24F03E
:10488C00A5EC2CF0080E93EF24F0A5EC2CF0070E01
:10489C0093EF24F0010125296BEC2CF0040E93EF1F
:1048AC0024F0070E01012719D8B45FEF24F061EF53
:1048BC0024F063EF24F0A8EC2CF00F0E93EF24F00F
:1048CC0012C10CF013C10DF002D877EF24F00500E3
:1048DC00FA6E0051FD6E0151FE6E0251FF6EFA50E0
:1048EC0012000F6E106A1050000AD8B480EF24F03A
:1048FC0057EF24F00F50010AD8B457EF24F0030AF5
:10490C00D8B44BEF24F0010AD8B446EF24F0070AD0
:10491C00D8B450EF24F057EF24F01200CDEC2BF06C
:10492C000009D8A49CEF24F09EEF24F0A1EF24F012
:10493C00040EE2EF24F001012951030B0009D8B455
:10494C00AAEF24F0ACEF24F0B8EF24F0010E016EC6
:10495C002951030B026E0150025E29510218FC0B07
:10496C000218296F2507D8A0260725512611D8B47F
:10497C00C2EF24F0C4EF24F0D2EF24F0A2EC2CF020
:10498C0060008FF4D9FF600093F4DAFFDF6E010151
:10499C00234B242B9EEF24F042EC24F0036EA2EC6C
:1049AC002CF060008FF4D9FF600093F4DAFFDF6E17
:1049BC000101234B242B03501200216E1C501D109F
:1049CC001E10D8B4ECEF24F0EEEF24F00FEF25F02E
:1049DC002150030D000EF324D96E010EF420DA6E73
:1049EC00600073F0DEFF600077F0DEFF60007BF0AC
:1049FC00DEFF2150020D120EF324D96E010EF420AD
:104A0C00DA6E60007FF0DEFF600083F0DDFF27EFE1
:104A1C0025F02150030D000EF324D96E010EF42065
:104A2C00DA6E6C0EDE6E580EDE6E000EDE6E2150EF
:104A3C00020D120EF324D96E010EF420DA6EDE6A2A
:104A4C00DD6A1200066E015002100310D8B431EF6B
:104A5C0025F033EF25F054EF25F00650030D000E32
:104A6C00F324D96E010EF420DA6E600007F0DEFF3D
:104A7C0060000BF0DEFF60000FF0DEFF0650020D51
:104A8C00120EF324D96E010EF420DA6E600013F0CE
:104A9C00DEFF600017F0DDFF6CEF25F00650030D14
:104AAC00000EF324D96E010EF420DA6E780EDE6E51
:104ABC00590EDE6E000EDE6E0650020D120EF32441
:104ACC00D96E010EF420DA6EDE6ADD6A1200000186
:104ADC00606F000E0001616F00016051E6EC22F086
:104AEC000009D8B47CEF25F07EEF25F072EF25F0AD
:104AFC00C00E226E520E236E000E246E610E256EB9
:104B0C00266A5DEC2BF02E0E1C6E1D6A000E1F6EBD
:104B1C00010E1E6EFBEC2AF0000E226E000E236EB0
:104B2C00000E246E000E256E000E266E4FEC2BF040
:104B3C0075EC2CF098EC2AF0E806D8B4A8EF25F028
:104B4C00AAEF25F0A0EF25F0000161511200010140
:104B5C002989C2EF25F0A5EC2CF0070EEBEF25F020
:104B6C00010125296BEC2CF0030EEBEF25F0A8ECE2
:104B7C002CF00A0EEBEF25F012C10CF013C10DF066
:104B8C0002D8D3EF25F00500FA6E0051FD6E0151ED
:104B9C00FE6E0251FF6EFA5012000F6E106A10502A
:104BAC00000AD8B4DCEF25F0BDEF25F00F50010A58
:104BBC00D8B4BDEF25F0030AD8B4B1EF25F0060A3E
:104BCC00D8B4B6EF25F0BDEF25F0120089EC2CF02F
:104BDC00020E0101286FFFEF25F044EC2CF026EFBC
:104BEC0026F0B8EC2CF026EF26F00BEC2CF026EF90
:104BFC0026F014C10CF015C10DF020EE03F102D813
:104C0C0012EF26F00500FA6EDE50FD6EDE50FE6EE1
:104C1C00DE50FF6EFA5012000F6E106A1050000A30
:104C2C00D8B41BEF26F0FBEF25F00F50020AD8B4D6
:104C3C00F3EF25F0010AD8B4F7EF25F0FBEF25F0E0
:104C4C001200000E3D01EC6F000EED6F000EEE6FCA
:104C5C00000EEF6F000EF06F000EF16FB00EF26FE2
:104C6C00800EF36F000EF46F330EF56F000EF66FBF
:104C7C00000EF76F000EF86F000EF96F000EFA6F52
:104C8C00000E1C6E000E1D6E000E1E6E1AEC2CF02B
:104C9C00000E1C6E000E1D6E000E1E6E13EC2CF022
:104CAC00000E1C6E000E1D6E000E1E6E21EC2CF004
:104CBC00000E446E1200FAEC27F001012951030B8F
:104CCC000009D8B46CEF26F06EEF26F07BEF26F0DF
:104CDC00C2EC2BF00009D8B476EF26F078EF26F072
:104CEC007BEF26F0100E0101276F01012751030DF8
:104CFC00F350010F156E600057F0F6FF200EF76EA3
:104D0C00000EF86E02D898EF26F00500FA6E090036
:104D1C00F550FD6E0900F550FE6E0900F550FF6E62
:104D2C00FA5012000101276F1200000165BFA3EFBA
:104D3C0026F0A1EF26F0A7EF26F0000E656F000E0F
:104D4C00646F000E676F000E666FBAEF26F0000EF0
:104D5C001F6E200E1E6E60C020F061C021F014EC9E
:104D6C0022F00001664B672B6451665D6751800A27
:104D7C002E6E6551800A2E58D8A0C7EF26F0C9EFC9
:104D8C0026F0ADEF26F062C027F063C028F060C0BB
:104D9C0029F061C02AF004EC29F01200FC0E01018C
:104DAC002917020E286F2995E3EF26F0B6EC2CF0AC
:104DBC000AEF27F00F0E0AEF27F016C10CF017C1FF
:104DCC000DF020EE06F102D8F6EF26F00500FA6E93
:104DDC00DE50FD6EDE50FE6EDE50FF6EFA5012009D
:104DEC000F6E106A1050000AD8B4FFEF26F0E0EFF7
:104DFC0026F00F50020AD8B4DCEF26F0010AD8B422
:104E0C00DCEF26F0E0EF26F0120039C01CF03AC0BF
:104E1C001DF03BC01EF03CC01FF02D0E206E7F0E0F
:104E2C00216E950E226E4C0E236E41EC27F0010E76
:104E3C001C24396E000E1D203A6E000E1E203B6E97
:104E4C00000E1F203C6E39C02AF03AC02BF03BC03C
:104E5C002CF03CC02DF0120E39EF27F0D8902D32EB
:104E6C002C322B322A32E82E34EF27F02AC028F0CD
:104E7C002BC029F01200000E246E000E256E000EC1
:104E8C00266E000E276E1CA04EEF27F050EF27F079
:104E9C0058EF27F02050242621502522225026227C
:104EAC0023502722D8902036213622362336D8900C
:104EBC001F321E321D321C321C501D101E101F10B2
:104ECC00D8A46BEF27F06DEF27F049EF27F024C043
:104EDC001CF025C01DF026C01EF027C01FF01200CC
:104EEC001EC025F01FC026F01CC023F01DC024F0EE
:104EFC0095EF27F0600097F0D9FF60009BF0DAFF88
:104F0C00DF50226E254A262A60008FF0D9FF600000
:104F1C0093F0DAFF60008BF0DFFF234A242A20068F
:104F2C00D8A02106202806E12128D8A4A0EF27F03C
:104F3C00A2EF27F080EF27F01200D3AEA8EF27F0F6
:104F4C004AEF28F020EE02F02750D9262850DA221A
:104F5C00DF50296E29C01CF01D6A60009FF0D9FF3C
:104F6C006000A3F0DAFF6F0078FF1EF06F0074FF93
:104F7C001FF0FBEC2AF0000E226E000E236E000ECA
:104F8C00246E000E256E000E266E5DEC2BF0020ECC
:104F9C0012001FBED4EF27F0D6EF27F0E0EF27F07A
:104FAC001CC01CF01DC01DF01EC01EF01FC01FF049
:104FBC00F9EF27F01CC020F01DC021F01EC022F01C
:104FCC001FC023F0201E211E221E231E202A000E8D
:104FDC0021222222232220C01CF021C01DF022C03D
:104FEC001EF023C01FF01200EEEC2BF00009D8B419
:104FFC0002EF28F004EF28F008EF28F0B1EC2CF0C9
:10500C0022EF28F0D8EC2BF00009D8B410EF28F0E0
:10501C0012EF28F016EF28F0ABEC2CF022EF28F072
:10502C00E3EC2BF00009D8B41EEF28F020EF28F0A9
:10503C0022EF28F0AEEC2CF012002C6E010E2D6E2F
:10504C00010129B52CEF28F02EEF28F048EF28F0BD
:10505C002985000E2D6E255161EC2CF02C50D8B406
:10506C003AEF28F03CEF28F043EF28F0040E010152
:10507C00276FD2EC29F048EF28F0030E0101276FBF
:10508C0030EC2BF02D50120020EE02F00C50D926F3
:10509C000D50DA22DF500E6E0EC001F0026A600075
:1050AC0033F0D9FF600037F0DAFF6F0078FF03F0C0
:1050BC006F0074FF04F00DEC2BF0000E076E000E69
:1050CC00086E000E096E000E0A6E000E0B6E6BEC75
:1050DC002BF0020E120082C12FF080EF28F080C15D
:1050EC00EDF081C1EEF02F0E0001EF6F83C1F0F0F7
:1050FC0082EC1BF06000BFF0F6FF200EF76E000E86
:10510C00F86E0800F5500009D8A48FEF28F091EF45
:10511C0028F075EF28F0000E0101816F000E806FF2
:10512C0012002E6E2E500001606F616B626B636B10
:10513C00000EB1EC1DF060C06EF061C06FF062C08B
:10514C0070F063C071F0000E0001726F000E736F8F
:10515C00A50E746F430E756FB4EC19F06EC087F02A
:10516C006FC088F070C089F071C08AF01200000E18
:10517C000001B41B000EB51B000EB61B800EB71B36
:10518C00B0C0A0F0B1C0A1F0B2C0A2F0B3C0A3F007
:10519C00B4C0A4F0B5C0A5F0B6C0A6F0B7C0A7F0D7
:1051AC002BEC15F0A0C0B0F0A1C0B1F0A2C0B2F0D1
:1051BC00A3C0B3F012001CC020F01DC021F01E2AA9
:1051CC001E041F6E60007FF0F6FF200EF76E000EBF
:1051DC00F86E600083F0D9FF600087F0DAFF204A98
:1051EC00212A08006F00D7FFDFFFDF50D8A401EFA2
:1051FC0029F003EF29F0E5EF28F01200000E2D6ED8
:10520C00000E2C6E15EF29F02BC01EF01F6A29C062
:10521C0020F02AC021F014EC22F02C4A2D2A2C501C
:10522C002724D96E2D502820DA6EDF502B6E2B5090
:10523C00D8A423EF29F025EF29F00AEF29F012006A
:10524C00D3AE2BEF29F021EF2AF027C01CF028C099
:10525C001DF0000E1F6E010E1E6EFBEC2AF0000EF0
:10526C00226E000E236E000E246E000E256E000EB4
:10527C00266E5DEC2BF0040E1200D3AE48EF29F035
:10528C0039EF2AF027C01CF028C01DF0000E1F6E4D
:10529C00020E1E6EFBEC2AF0000E226E000E236E28
:1052AC00000E246E000E256E000E266E5DEC2BF0AB
:1052BC00020E1200D3AE65EF29F051EF2AF027C091
:1052CC001CF028C01DF0000E1F6E010E1E6EFBECB4
:1052DC002AF0000E226E000E236E000E246E000EBD
:1052EC00256E000E266E5DEC2BF0020E1200D3AE76
:1052FC0082EF29F069EF2AF027C01CF028C01DF0BE
:10530C00000E1F6E020E1E6EFBEC2AF0000E226EBB
:10531C00000E236E000E246E000E256E000E266EFF
:10532C005DEC2BF0040E12001C501D10D8B4A1EF34
:10533C0029F0A3EF29F0B1EF29F0600073F0D9FF49
:10534C00600077F0DAFFFF0EDE6EFF0EDE6EFF0EF2
:10535C00DE6EFF0EDD6E1C681D681E681F68120075
:10536C001C501D101E101F10D8B4BFEF29F0C1EF38
:10537C0029F0C9EF29F0000E1C1A000E1D1A000EA0
:10538C001E1A800E1F1A1CC01CF01DC01DF01EC062
:10539C001EF01FC01FF01200D3AED7EF29F081EF23
:1053AC002AF001012951FC0B0209296F2505261150
:1053BC00D8A4E3EF29F0E5EF29F0E7EF29F042EC70
:1053CC0023F0D880010122355CEC2CF0040E120085
:1053DC0000EE00F17A0EEE6AE806FDE100EEF5F063
:1053EC000B0EEE6AE806FDE100EE3DF0080EEE6AEB
:1053FC00E806FDE1080ED56E000ED66E000ED76ED7
:10540C00000128EF21F03D015DBF0FEF2AF011EFF5
:10541C002AF020EF2AF0000E636F000E646F000E6E
:10542C00606F000E566F510E3A015A6F510E5B6F42
:10543C003D015D8F12000CC001F00DC002F0000E9A
:10544C00046E010E036E0DEC2BF0000E076E000EB9
:10545C00086E000E096E000E0A6E000E0B6E6BECE1
:10546C002BF0040E12000CC001F00DC002F0000E67
:10547C00046E020E036E0DEC2BF0000E076E000E88
:10548C00086E000E096E000E0A6E000E0B6E6BECB1
:10549C002BF0020E12000CC001F00DC002F0000E39
:1054AC00046E010E036E0DEC2BF0000E076E000E59
:1054BC00086E000E096E000E0A6E000E0B6E6BEC81
:1054CC002BF0020E12000CC001F00DC002F0000E09
:1054DC00046E020E036E0DEC2BF0000E076E000E28
:1054EC00086E000E096E000E0A6E000E0B6E6BEC51
:1054FC002BF0040E120001012951FC0B0209296F3B
:10550C0025052611D8A48DEF2AF08FEF2AF091EF04
:10551C002AF042EC24F0D8800101223566EC2CF004
:10552C00040E1200010E1C6E010129B5A0EF2AF029
:10553C00A2EF2AF0ACEF2AF02997226979EC2CF033
:10554C0040EC2BF04BEC2CF028C11CF01C50120042
:10555C001C501E026F00CCFF20F06F00D0FF21F01A
:10556C001C501F02F35021261D501E02F350212601
:10557C0020C01CF021C01DF0120099EC2CF096EC10
:10558C002CF00009D8B4CDEF2AF0CFEF2AF0D5EFEC
:10559C002AF0000E6BEC2CF0000E66EC2CF0000EDA
:1055AC001200000E3901C06F000EC16F000EC26FE9
:1055BC00000EC36F000EC46F000EC56F000EC66FD9
:1055CC00000EC76F1200040E3D015D6F000E5E6F82
:1055DC00180E5F6F020E656F000E636F000E646F26
:1055EC00000E606F000E566F1200010129A901EF29
:1055FC002BF003EF2BF00CEF2BF01CC023F11DC094
:10560C0024F11EC025F11FC026F1299912000101B9
:10561C0029A913EF2BF015EF2BF01EEF2BF001C087
:10562C0023F102C024F103C025F104C026F129990D
:10563C001200850E0001F36F010EF46F000E0101D4
:10564C00806F000E816F84C182F1F30E836F71EC59
:10565C0028F01200D3AE35EF2BF0ACEF2BF001019C
:10566C002951FC0B0209296F225122255CEC2CF0EC
:10567C00030E1200390196919693959D959F3D01CD
:10568C0064916495649F649D64936093609560914C
:10569C00120022C01CF023C01DF024C01EF025C037
:1056AC001FF026C020F0020EE3EC24F0120022C002
:1056BC001CF023C01DF024C01EF025C01FF026C016
:1056CC0020F0000EE3EC24F0120007C001F008C03B
:1056DC0002F009C003F00AC004F00BC005F0000E84
:1056EC0028EC25F01200FF0E2024226EFF0E212044
:1056FC00236E22C039F023C03AF03B6A3C6A120098
:10570C001C6E3901A3A98DEF2BF08FEF2BF087EFD7
:10571C002BF0600073F0EAFD1200B4EC2CF0D7EC27
:10572C002AF0E9EC2AF0EEEC23F0A0EC2BF027ECBD
:10573C0026F01200620E3901D96F000EDB6F000EDD
:10574C00DD6F030EDF6F000EDE6F120001012951B9
:10575C00FC0B0209296F2251222566EC2CF0030E5A
:10576C0012003D0162BBBDEF2BF0C0EF2BF0010E20
:10577C00C1EF2BF0000E12003D015EBBC8EF2BF009
:10578C00CBEF2BF0010ECCEF2BF0000E12003D01F5
:10579C0062B1D3EF2BF0D6EF2BF0010ED7EF2BF03D
:1057AC00000E12003D0163B5DEEF2BF0E1EF2BF0A4
:1057BC00010EE2EF2BF0000E12003D0160B9E9EF93
:1057CC002BF0ECEF2BF0010EEDEF2BF0000E120096
:1057DC003D0163BFF4EF2BF0F7EF2BF0010EF8EF68
:1057EC002BF0000E1200390196819683958D958FC2
:1057FC003D016485648F6081120070EC2CF0010116
:10580C002995020E286F0F0E120070EC2CF001017E
:10581C002995000E286F0F0E12001CC033F01DC00E
:10582C0034F01EC035F012001CC036F01DC037F02D
:10583C001EC038F012001CC030F01DC031F01EC06C
:10584C0032F012001CC041F01DC042F01EC043F0EB
:10585C001200D3AE34EF2CF0BAEF2CF0050E120080
:10586C00D3AE3BEF2CF0BCEF2CF0010E12009CECF5
:10587C002CF099EC2CF051EC2CF01200010125517C
:10588C006BEC2CF081EC2AF012003D015D9F000EB8
:10589C00636F6285120001012995000E286F0F0EAF
:1058AC0012001D6E1D5086EC2BF012001C6E600059
:1058BC0073F055FD12001C6E600073F056FD120063
:1058CC00016E600007F055FD1200016E600007F0DC
:1058DC0056FD12003D015D9F62855D8F1200000E2A
:1058EC0023EC28F01200000E3D01636F12009CECBB
:1058FC002CF0090E12009FEC2CF0030E12009FEC02
:10590C002CF0040E1200000E3D01636F12003D01DD
:10591C005D8D12003D015D9D120061EC26F01200C0
:10592C003D01565112003D015D9B12003D015E8D03
:10593C0012003D015E9D12003D01545112003D01CB
:10594C005D8D12003D015D9D12003D0163951200BD
:10595C003D01609912003D01639F1200D29A120022
:10596C00010E1200020E1200050E1200010E1200A2
:020000040030CA
:0A000000ECFFF7FF9FFFFFFFFFFF7B
:00000001FF
